{
  "_format": "hh-sol-artifact-1",
  "contractName": "DemandSimulator",
  "sourceName": "contracts/DemandSimulator.sol",
  "abi": [
    {
      "anonymous": false,
      "inputs": [
        {
          "indexed": true,
          "internalType": "bytes32",
          "name": "offeringId",
          "type": "bytes32"
        },
        {
          "indexed": false,
          "internalType": "uint256",
          "name": "amount",
          "type": "uint256"
        },
        {
          "indexed": true,
          "internalType": "address",
          "name": "caller",
          "type": "address"
        }
      ],
      "name": "DemandRequested",
      "type": "event"
    },
    {
      "inputs": [
        {
          "internalType": "bytes32",
          "name": "offeringId",
          "type": "bytes32"
        },
        {
          "internalType": "uint256",
          "name": "amount",
          "type": "uint256"
        }
      ],
      "name": "requestDemand",
      "outputs": [],
      "stateMutability": "nonpayable",
      "type": "function"
    }
  ],
  "bytecode": "0x608060405234801561001057600080fd5b50610270806100206000396000f3fe608060405234801561001057600080fd5b506004361061002b5760003560e01c8063a1fb7f0114610030575b600080fd5b61004a60048036038101906100459190610153565b61004c565b005b6000811161008f576040517f08c379a0000000000000000000000000000000000000000000000000000000008152600401610086906101f0565b60405180910390fd5b3373ffffffffffffffffffffffffffffffffffffffff16827fdf5b54620379803cab16ba2d49ed60c7a136d8f567348e8ae57a9e539dba44b9836040516100d6919061021f565b60405180910390a35050565b600080fd5b6000819050919050565b6100fa816100e7565b811461010557600080fd5b50565b600081359050610117816100f1565b92915050565b6000819050919050565b6101308161011d565b811461013b57600080fd5b50565b60008135905061014d81610127565b92915050565b6000806040838503121561016a576101696100e2565b5b600061017885828601610108565b92505060206101898582860161013e565b9150509250929050565b600082825260208201905092915050565b7f616d6f756e74206d757374206265203e20300000000000000000000000000000600082015250565b60006101da601283610193565b91506101e5826101a4565b602082019050919050565b60006020820190508181036000830152610209816101cd565b9050919050565b6102198161011d565b82525050565b60006020820190506102346000830184610210565b9291505056fea26469706673582212206abe902ef16699fae36b4835703cc791a10e396a1314637f042554fdd2e0c41364736f6c63430008120033",
  "linkReferences": {},
  "deployedLinkReferences": {}
}